{
  "_format": "hh-sol-artifact-1",
  "contractName": "Lottery",
  "sourceName": "contracts/lottery.sol",
  "abi": [
    {
      "inputs": [
        {
          "internalType": "uint256",
          "name": "entranceFee",
          "type": "uint256"
        },
        {
          "internalType": "address",
          "name": "vrfCoordinatorV2",
          "type": "address"
        },
        {
          "internalType": "bytes32",
          "name": "gasLane",
          "type": "bytes32"
        },
        {
          "internalType": "uint64",
          "name": "subscriptionId",
          "type": "uint64"
        },
        {
          "internalType": "uint32",
          "name": "callbackGasLimit",
          "type": "uint32"
        },
        {
          "internalType": "uint256",
          "name": "interval",
          "type": "uint256"
        }
      ],
      "stateMutability": "nonpayable",
      "type": "constructor"
    },
    {
      "inputs": [],
      "name": "Lottery__LotteryNotOpen",
      "type": "error"
    },
    {
      "inputs": [],
      "name": "Lottery__TransferFailed",
      "type": "error"
    },
    {
      "inputs": [
        {
          "internalType": "uint256",
          "name": "currentBalance",
          "type": "uint256"
        },
        {
          "internalType": "uint256",
          "name": "numPlayers",
          "type": "uint256"
        },
        {
          "internalType": "uint256",
          "name": "lotteryState",
          "type": "uint256"
        }
      ],
      "name": "Lottery__UpKeepNotNeeded",
      "type": "error"
    },
    {
      "inputs": [
        {
          "internalType": "address",
          "name": "have",
          "type": "address"
        },
        {
          "internalType": "address",
          "name": "want",
          "type": "address"
        }
      ],
      "name": "OnlyCoordinatorCanFulfill",
      "type": "error"
    },
    {
      "inputs": [],
      "name": "lottery__erorr",
      "type": "error"
    },
    {
      "anonymous": false,
      "inputs": [
        {
          "indexed": true,
          "internalType": "address",
          "name": "player",
          "type": "address"
        }
      ],
      "name": "Lottery_enter",
      "type": "event"
    },
    {
      "anonymous": false,
      "inputs": [
        {
          "indexed": true,
          "internalType": "address",
          "name": "winner",
          "type": "address"
        }
      ],
      "name": "WinnerPicked",
      "type": "event"
    },
    {
      "anonymous": false,
      "inputs": [
        {
          "indexed": true,
          "internalType": "uint256",
          "name": "request",
          "type": "uint256"
        }
      ],
      "name": "requestedLotteryWinner",
      "type": "event"
    },
    {
      "inputs": [
        {
          "internalType": "bytes",
          "name": "checkData",
          "type": "bytes"
        }
      ],
      "name": "checkUpkeep",
      "outputs": [
        {
          "internalType": "bool",
          "name": "upkeepNeeded",
          "type": "bool"
        },
        {
          "internalType": "bytes",
          "name": "",
          "type": "bytes"
        }
      ],
      "stateMutability": "view",
      "type": "function"
    },
    {
      "inputs": [],
      "name": "enterRaffle",
      "outputs": [],
      "stateMutability": "payable",
      "type": "function"
    },
    {
      "inputs": [],
      "name": "getEntranceFee",
      "outputs": [
        {
          "internalType": "uint256",
          "name": "",
          "type": "uint256"
        }
      ],
      "stateMutability": "view",
      "type": "function"
    },
    {
      "inputs": [
        {
          "internalType": "uint256",
          "name": "index",
          "type": "uint256"
        }
      ],
      "name": "getPlayer",
      "outputs": [
        {
          "internalType": "address",
          "name": "",
          "type": "address"
        }
      ],
      "stateMutability": "view",
      "type": "function"
    },
    {
      "inputs": [
        {
          "internalType": "bytes",
          "name": "",
          "type": "bytes"
        }
      ],
      "name": "performUpkeep",
      "outputs": [],
      "stateMutability": "nonpayable",
      "type": "function"
    },
    {
      "inputs": [
        {
          "internalType": "uint256",
          "name": "requestId",
          "type": "uint256"
        },
        {
          "internalType": "uint256[]",
          "name": "randomWords",
          "type": "uint256[]"
        }
      ],
      "name": "rawFulfillRandomWords",
      "outputs": [],
      "stateMutability": "nonpayable",
      "type": "function"
    }
  ],
  "bytecode": "0x6101606040523480156200001257600080fd5b5060405162001598380380620015988339818101604052810190620000389190620001ad565b848073ffffffffffffffffffffffffffffffffffffffff1660808173ffffffffffffffffffffffffffffffffffffffff1660601b81525050508561014081815250508473ffffffffffffffffffffffffffffffffffffffff1660a08173ffffffffffffffffffffffffffffffffffffffff1660601b815250508360c081815250508163ffffffff166101008163ffffffff1660e01b815250508267ffffffffffffffff1660e08167ffffffffffffffff1660c01b815250506000600160006101000a81548160ff02191690836001811115620001195762000118620002b5565b5b0217905550806101208181525050426002819055505050505050506200036b565b6000815190506200014b81620002e9565b92915050565b600081519050620001628162000303565b92915050565b60008151905062000179816200031d565b92915050565b600081519050620001908162000337565b92915050565b600081519050620001a78162000351565b92915050565b60008060008060008060c08789031215620001cd57620001cc620002e4565b5b6000620001dd89828a0162000168565b9650506020620001f089828a016200013a565b95505060406200020389828a0162000151565b94505060606200021689828a0162000196565b93505060806200022989828a016200017f565b92505060a06200023c89828a0162000168565b9150509295509295509295565b6000620002568262000267565b9050919050565b6000819050919050565b600073ffffffffffffffffffffffffffffffffffffffff82169050919050565b6000819050919050565b600063ffffffff82169050919050565b600067ffffffffffffffff82169050919050565b7f4e487b7100000000000000000000000000000000000000000000000000000000600052602160045260246000fd5b600080fd5b620002f48162000249565b81146200030057600080fd5b50565b6200030e816200025d565b81146200031a57600080fd5b50565b620003288162000287565b81146200033457600080fd5b50565b620003428162000291565b81146200034e57600080fd5b50565b6200035c81620002a1565b81146200036857600080fd5b50565b60805160601c60a05160601c60c05160e05160c01c6101005160e01c61012051610140516111b8620003e0600039600081816101600152610246015260006105f4015260006104ea015260006104c7015260006104a60152600061046a01526000818161018601526101da01526111b86000f3fe6080604052600436106100555760003560e01c806309bc33a71461005a5780631fe543e3146100855780632cfcc539146100ae5780634585e33b146100b85780636e04ff0d146100e1578063e55ae4e81461011f575b600080fd5b34801561006657600080fd5b5061006f61015c565b60405161007c9190610df7565b60405180910390f35b34801561009157600080fd5b506100ac60048036038101906100a79190610bfa565b610184565b005b6100b6610244565b005b3480156100c457600080fd5b506100df60048036038101906100da9190610b0a565b6103b3565b005b3480156100ed57600080fd5b5061010860048036038101906101039190610b57565b6105b2565b604051610116929190610d74565b60405180910390f35b34801561012b57600080fd5b5061014660048036038101906101419190610ba0565b61065e565b6040516101539190610d30565b60405180910390f35b60007f0000000000000000000000000000000000000000000000000000000000000000905090565b7f000000000000000000000000000000000000000000000000000000000000000073ffffffffffffffffffffffffffffffffffffffff163373ffffffffffffffffffffffffffffffffffffffff161461023657337f00000000000000000000000000000000000000000000000000000000000000006040517f1cf993f400000000000000000000000000000000000000000000000000000000815260040161022d929190610d4b565b60405180910390fd5b61024082826106a5565b5050565b7f000000000000000000000000000000000000000000000000000000000000000034101561029e576040517fbe55a28e00000000000000000000000000000000000000000000000000000000815260040160405180910390fd5b600060018111156102b2576102b16110ac565b5b600160009054906101000a900460ff1660018111156102d4576102d36110ac565b5b1461030b576040517f823ea8bb00000000000000000000000000000000000000000000000000000000815260040160405180910390fd5b6000339080600181540180825580915050600190039060005260206000200160009091909190916101000a81548173ffffffffffffffffffffffffffffffffffffffff021916908373ffffffffffffffffffffffffffffffffffffffff1602179055503373ffffffffffffffffffffffffffffffffffffffff167ff094bd9ba23bb5eb98101ca0cdc3f9f71cec18a04c11d4df28b7125be5c55b9860405160405180910390a2565b60006103cd604051806020016040528060008152506105b2565b5090508061043c5747600080549050600160009054906101000a900460ff1660018111156103fe576103fd6110ac565b5b6040517fa9e3cfef00000000000000000000000000000000000000000000000000000000815260040161043393929190610e12565b60405180910390fd5b60018060006101000a81548160ff02191690836001811115610461576104606110ac565b5b021790555060007f000000000000000000000000000000000000000000000000000000000000000073ffffffffffffffffffffffffffffffffffffffff16635d3b1d307f00000000000000000000000000000000000000000000000000000000000000007f000000000000000000000000000000000000000000000000000000000000000060037f000000000000000000000000000000000000000000000000000000000000000060016040518663ffffffff1660e01b815260040161052b959493929190610da4565b602060405180830381600087803b15801561054557600080fd5b505af1158015610559573d6000803e3d6000fd5b505050506040513d601f19601f8201168201806040525081019061057d9190610bcd565b9050807f8436886e362e85384c64d5af46721d434cb451102c48870819d9f8420f55317660405160405180910390a250505050565b6000606060008060018111156105cb576105ca6110ac565b5b600160009054906101000a900460ff1660018111156105ed576105ec6110ac565b5b14905060007f0000000000000000000000000000000000000000000000000000000000000000600254426106219190610ef2565b119050600080600080549050119050600080471190508380156106415750825b801561064a5750815b80156106535750805b955050505050915091565b6000808281548110610673576106726110db565b5b9060005260206000200160009054906101000a900473ffffffffffffffffffffffffffffffffffffffff169050919050565b60008080549050826000815181106106c0576106bf6110db565b5b60200260200101516106d2919061101d565b905060008082815481106106e9576106e86110db565b5b9060005260206000200160009054906101000a900473ffffffffffffffffffffffffffffffffffffffff169050806001806101000a81548173ffffffffffffffffffffffffffffffffffffffff021916908373ffffffffffffffffffffffffffffffffffffffff160217905550600067ffffffffffffffff8111156107715761077061110a565b5b60405190808252806020026020018201604052801561079f5781602001602082028036833780820191505090505b50600090805190602001906107b59291906108d5565b506000600160006101000a81548160ff021916908360018111156107dc576107db6110ac565b5b02179055504260028190555060008173ffffffffffffffffffffffffffffffffffffffff164760405161080e90610d1b565b60006040518083038185875af1925050503d806000811461084b576040519150601f19603f3d011682016040523d82523d6000602084013e610850565b606091505b505090508061088b576040517f1c94012000000000000000000000000000000000000000000000000000000000815260040160405180910390fd5b8173ffffffffffffffffffffffffffffffffffffffff167f5b690ec4a06fe979403046eaeea5b3ce38524683c3001f662c8b5a829632f7df60405160405180910390a25050505050565b82805482825590600052602060002090810192821561094e579160200282015b8281111561094d5782518260006101000a81548173ffffffffffffffffffffffffffffffffffffffff021916908373ffffffffffffffffffffffffffffffffffffffff160217905550916020019190600101906108f5565b5b50905061095b919061095f565b5090565b5b80821115610978576000816000905550600101610960565b5090565b600061098f61098a84610e6e565b610e49565b905080838252602082019050828560208602820111156109b2576109b1611143565b5b60005b858110156109e257816109c88882610ae0565b8452602084019350602083019250506001810190506109b5565b5050509392505050565b60006109ff6109fa84610e9a565b610e49565b905082815260208101848484011115610a1b57610a1a611148565b5b610a26848285610faa565b509392505050565b600082601f830112610a4357610a4261113e565b5b8135610a5384826020860161097c565b91505092915050565b60008083601f840112610a7257610a7161113e565b5b8235905067ffffffffffffffff811115610a8f57610a8e611139565b5b602083019150836001820283011115610aab57610aaa611143565b5b9250929050565b600082601f830112610ac757610ac661113e565b5b8135610ad78482602086016109ec565b91505092915050565b600081359050610aef8161116b565b92915050565b600081519050610b048161116b565b92915050565b60008060208385031215610b2157610b20611152565b5b600083013567ffffffffffffffff811115610b3f57610b3e61114d565b5b610b4b85828601610a5c565b92509250509250929050565b600060208284031215610b6d57610b6c611152565b5b600082013567ffffffffffffffff811115610b8b57610b8a61114d565b5b610b9784828501610ab2565b91505092915050565b600060208284031215610bb657610bb5611152565b5b6000610bc484828501610ae0565b91505092915050565b600060208284031215610be357610be2611152565b5b6000610bf184828501610af5565b91505092915050565b60008060408385031215610c1157610c10611152565b5b6000610c1f85828601610ae0565b925050602083013567ffffffffffffffff811115610c4057610c3f61114d565b5b610c4c85828601610a2e565b9150509250929050565b610c5f81610f26565b82525050565b610c6e81610f38565b82525050565b610c7d81610f44565b82525050565b6000610c8e82610ecb565b610c988185610ed6565b9350610ca8818560208601610fb9565b610cb181611157565b840191505092915050565b6000610cc9600083610ee7565b9150610cd482611168565b600082019050919050565b610ce881610f4e565b82525050565b610cf781610f7c565b82525050565b610d0681610f86565b82525050565b610d1581610f96565b82525050565b6000610d2682610cbc565b9150819050919050565b6000602082019050610d456000830184610c56565b92915050565b6000604082019050610d606000830185610c56565b610d6d6020830184610c56565b9392505050565b6000604082019050610d896000830185610c65565b8181036020830152610d9b8184610c83565b90509392505050565b600060a082019050610db96000830188610c74565b610dc66020830187610d0c565b610dd36040830186610cdf565b610de06060830185610cfd565b610ded6080830184610cfd565b9695505050505050565b6000602082019050610e0c6000830184610cee565b92915050565b6000606082019050610e276000830186610cee565b610e346020830185610cee565b610e416040830184610cee565b949350505050565b6000610e53610e64565b9050610e5f8282610fec565b919050565b6000604051905090565b600067ffffffffffffffff821115610e8957610e8861110a565b5b602082029050602081019050919050565b600067ffffffffffffffff821115610eb557610eb461110a565b5b610ebe82611157565b9050602081019050919050565b600081519050919050565b600082825260208201905092915050565b600081905092915050565b6000610efd82610f7c565b9150610f0883610f7c565b925082821015610f1b57610f1a61104e565b5b828203905092915050565b6000610f3182610f5c565b9050919050565b60008115159050919050565b6000819050919050565b600061ffff82169050919050565b600073ffffffffffffffffffffffffffffffffffffffff82169050919050565b6000819050919050565b600063ffffffff82169050919050565b600067ffffffffffffffff82169050919050565b82818337600083830152505050565b60005b83811015610fd7578082015181840152602081019050610fbc565b83811115610fe6576000848401525b50505050565b610ff582611157565b810181811067ffffffffffffffff821117156110145761101361110a565b5b80604052505050565b600061102882610f7c565b915061103383610f7c565b9250826110435761104261107d565b5b828206905092915050565b7f4e487b7100000000000000000000000000000000000000000000000000000000600052601160045260246000fd5b7f4e487b7100000000000000000000000000000000000000000000000000000000600052601260045260246000fd5b7f4e487b7100000000000000000000000000000000000000000000000000000000600052602160045260246000fd5b7f4e487b7100000000000000000000000000000000000000000000000000000000600052603260045260246000fd5b7f4e487b7100000000000000000000000000000000000000000000000000000000600052604160045260246000fd5b600080fd5b600080fd5b600080fd5b600080fd5b600080fd5b600080fd5b6000601f19601f8301169050919050565b50565b61117481610f7c565b811461117f57600080fd5b5056fea2646970667358221220f4e7016e1b6649c4cd25928c919b15016e66ed3730835ec26f47f52957a06cbe64736f6c63430008070033",
  "linkReferences": {},
  "deployedLinkReferences": {}
}